{
  "contractName": "DecentralBank",
  "abi": [
    {
      "inputs": [
        {
          "internalType": "contract RWD",
          "name": "_rwd",
          "type": "address"
        },
        {
          "internalType": "contract Tether",
          "name": "_tether",
          "type": "address"
        }
      ],
      "stateMutability": "nonpayable",
      "type": "constructor"
    },
    {
      "anonymous": false,
      "inputs": [],
      "name": "IssueTokens",
      "type": "event"
    },
    {
      "inputs": [
        {
          "internalType": "address",
          "name": "",
          "type": "address"
        }
      ],
      "name": "hasStaked",
      "outputs": [
        {
          "internalType": "bool",
          "name": "",
          "type": "bool"
        }
      ],
      "stateMutability": "view",
      "type": "function"
    },
    {
      "inputs": [
        {
          "internalType": "address",
          "name": "",
          "type": "address"
        }
      ],
      "name": "isStaked",
      "outputs": [
        {
          "internalType": "bool",
          "name": "",
          "type": "bool"
        }
      ],
      "stateMutability": "view",
      "type": "function"
    },
    {
      "inputs": [],
      "name": "name",
      "outputs": [
        {
          "internalType": "string",
          "name": "",
          "type": "string"
        }
      ],
      "stateMutability": "view",
      "type": "function"
    },
    {
      "inputs": [],
      "name": "owner",
      "outputs": [
        {
          "internalType": "address",
          "name": "",
          "type": "address"
        }
      ],
      "stateMutability": "view",
      "type": "function"
    },
    {
      "inputs": [],
      "name": "rwd",
      "outputs": [
        {
          "internalType": "contract RWD",
          "name": "",
          "type": "address"
        }
      ],
      "stateMutability": "view",
      "type": "function"
    },
    {
      "inputs": [
        {
          "internalType": "uint256",
          "name": "",
          "type": "uint256"
        }
      ],
      "name": "stakers",
      "outputs": [
        {
          "internalType": "address",
          "name": "",
          "type": "address"
        }
      ],
      "stateMutability": "view",
      "type": "function"
    },
    {
      "inputs": [
        {
          "internalType": "address",
          "name": "",
          "type": "address"
        }
      ],
      "name": "stakingBalances",
      "outputs": [
        {
          "internalType": "uint256",
          "name": "",
          "type": "uint256"
        }
      ],
      "stateMutability": "view",
      "type": "function"
    },
    {
      "inputs": [],
      "name": "tether",
      "outputs": [
        {
          "internalType": "contract Tether",
          "name": "",
          "type": "address"
        }
      ],
      "stateMutability": "view",
      "type": "function"
    },
    {
      "inputs": [
        {
          "internalType": "uint256",
          "name": "_amount",
          "type": "uint256"
        }
      ],
      "name": "depositeTokens",
      "outputs": [],
      "stateMutability": "nonpayable",
      "type": "function"
    },
    {
      "inputs": [],
      "name": "issueTokens",
      "outputs": [],
      "stateMutability": "nonpayable",
      "type": "function"
    },
    {
      "inputs": [],
      "name": "unstakeTokens",
      "outputs": [],
      "stateMutability": "nonpayable",
      "type": "function"
    }
  ],
  "bytecode": "0x60c0604052600e60808190526d446563656e7472616c2042616e6b60901b60a090815261002f916001919061009c565b5034801561003c57600080fd5b50604051610a5d380380610a5d83398101604081905261005b91610135565b600380546001600160a01b039384166001600160a01b03199182161790915560028054929093169181169190911790915560008054909116331790556101c1565b8280546100a89061016e565b90600052602060002090601f0160209004810192826100ca5760008555610110565b82601f106100e357805160ff1916838001178555610110565b82800160010185558215610110579182015b828111156101105782518255916020019190600101906100f5565b5061011c929150610120565b5090565b5b8082111561011c5760008155600101610121565b60008060408385031215610147578182fd5b8251610152816101a9565b6020840151909250610163816101a9565b809150509250929050565b60028104600182168061018257607f821691505b602082108114156101a357634e487b7160e01b600052602260045260246000fd5b50919050565b6001600160a01b03811681146101be57600080fd5b50565b61088d806101d06000396000f3fe608060405234801561001057600080fd5b50600436106100a95760003560e01c806361b8b5dc1161007157806361b8b5dc146101135780638da5cb5b14610133578063a5ce413b1461013b578063c93c8f3414610143578063f5fcdded14610156578063fd5e6dd114610169576100a9565b806306fdde03146100ae5780631a8972d3146100cc5780635efc071a146100e157806360ab5852146100e95780636177fd18146100f3575b600080fd5b6100b661017c565b6040516100c391906106df565b60405180910390f35b6100d461020a565b6040516100c39190610683565b6100d4610219565b6100f1610228565b005b61010661010136600461061d565b610385565b6040516100c391906106d4565b61012661012136600461061d565b61039a565b6040516100c391906107aa565b6100d46103ac565b6100f16103bb565b61010661015136600461061d565b610494565b6100f161016436600461066b565b6104a9565b6100d461017736600461066b565b6105f3565b60018054610189906107eb565b80601f01602080910402602001604051908101604052809291908181526020018280546101b5906107eb565b80156102025780601f106101d757610100808354040283529160200191610202565b820191906000526020600020905b8154815290600101906020018083116101e557829003601f168201915b505050505081565b6003546001600160a01b031681565b6002546001600160a01b031681565b6000546001600160a01b0316331461025b5760405162461bcd60e51b815260040161025290610732565b60405180910390fd5b60005b6004548110156103595760006004828154811061028b57634e487b7160e01b600052603260045260246000fd5b60009182526020808320909101546001600160a01b0316808352600590915260408220549092506102be906009906107cb565b60035460405163a9059cbb60e01b81529192506001600160a01b03169063a9059cbb906102f190859085906004016106bb565b602060405180830381600087803b15801561030b57600080fd5b505af115801561031f573d6000803e3d6000fd5b505050506040513d601f19601f82011682018060405250810190610343919061064b565b505050808061035190610826565b91505061025e565b506040517f7593c83191396eba2343e71fb38d82ebf82b2f6ac5b19a367997c2fafe5c25e590600090a1565b60076020526000908152604090205460ff1681565b60056020526000908152604090205481565b6000546001600160a01b031681565b33600090815260056020526040902054806103e85760405162461bcd60e51b815260040161025290610769565b60025460405163a9059cbb60e01b81526001600160a01b039091169063a9059cbb9061041a90339085906004016106bb565b602060405180830381600087803b15801561043457600080fd5b505af1158015610448573d6000803e3d6000fd5b505050506040513d601f19601f8201168201806040525081019061046c919061064b565b505033600090815260056020908152604080832083905560079091529020805460ff19169055565b60066020526000908152604090205460ff1681565b600081116104b657600080fd5b6002546040516323b872dd60e01b81526001600160a01b03909116906323b872dd906104ea90339030908690600401610697565b602060405180830381600087803b15801561050457600080fd5b505af1158015610518573d6000803e3d6000fd5b505050506040513d601f19601f8201168201806040525081019061053c919061064b565b50336000908152600560205260409020546105589082906107b3565b3360009081526005602090815260408083209390935560069052205460ff166105be57600480546001810182556000919091527f8a35acfbc15ff81a39ae7d344fd709f28e8600b4aa8c65c6b64bfe7fe36bd19b0180546001600160a01b031916331790555b503360009081526007602090815260408083208054600160ff1991821681179092556006909352922080549091169091179055565b6004818154811061060357600080fd5b6000918252602090912001546001600160a01b0316905081565b60006020828403121561062e578081fd5b81356001600160a01b0381168114610644578182fd5b9392505050565b60006020828403121561065c578081fd5b81518015158114610644578182fd5b60006020828403121561067c578081fd5b5035919050565b6001600160a01b0391909116815260200190565b6001600160a01b039384168152919092166020820152604081019190915260600190565b6001600160a01b03929092168252602082015260400190565b901515815260200190565b6000602080835283518082850152825b8181101561070b578581018301518582016040015282016106ef565b8181111561071c5783604083870101525b50601f01601f1916929092016040019392505050565b60208082526018908201527f63616c6c6572206d75737420626520746865206f776e65720000000000000000604082015260600190565b60208082526021908201527f62616c616e63652063616e206e6f74206265206c657373207468616e207a65726040820152606f60f81b606082015260800190565b90815260200190565b600082198211156107c6576107c6610841565b500190565b6000826107e657634e487b7160e01b81526012600452602481fd5b500490565b6002810460018216806107ff57607f821691505b6020821081141561082057634e487b7160e01b600052602260045260246000fd5b50919050565b600060001982141561083a5761083a610841565b5060010190565b634e487b7160e01b600052601160045260246000fdfea26469706673582212205a7ef5e2397125a494d65c22303bab8a32c66f732c4a55df3dd867cd40b7e71064736f6c63430008000033",
  "immutableReferences": {},
  "source": "// SPDX-License-Identifier: MIT\npragma solidity >=0.5.0 <0.9.0;\n\nimport \"./RWD.sol\";\nimport \"./Tether.sol\";\n\ncontract DecentralBank {\n    address public owner;\n    string public name = \"Decentral Bank\";\n\n    event IssueTokens();\n\n    Tether public tether;\n    RWD public rwd;\n\n    address[] public stakers;\n\n    mapping(address => uint) public stakingBalances;\n    mapping(address => bool) public hasStaked;\n    mapping(address => bool) public isStaked;\n\n    constructor(RWD _rwd, Tether _tether) {\n        rwd = _rwd;\n        tether = _tether;\n        owner=msg.sender;\n    }\n    function depositeTokens(uint _amount) public {\n        require(_amount > 0);\n        tether.transferFrom(msg.sender, address(this), _amount);\n\n        stakingBalances[msg.sender] = stakingBalances[msg.sender]+_amount;\n\n        if (!hasStaked[msg.sender]) {\n            stakers.push(msg.sender);\n        }\n        isStaked[msg.sender] = true;\n        hasStaked[msg.sender] = true;\n    }\n    function issueTokens() public {\n        require(msg.sender==owner, 'caller must be the owner');\n        for(uint i=0;i<stakers.length;i++){\n            address recipient =stakers[i];\n            uint balance=stakingBalances[recipient] /9;\n            if(balance>=0){\n                rwd.transfer(recipient, balance);\n            }\n        }\n        emit IssueTokens();\n    }\n    function unstakeTokens() public{\n        uint balance =stakingBalances[msg.sender];\n        require(balance>0, 'balance can not be less than zero');\n        tether.transfer(msg.sender, balance);\n\n        stakingBalances[msg.sender]=0;\n        isStaked[msg.sender]=false;\n    }\n}\n",
  "sourcePath": "/Users/cdbb/Documents/DAppLearning/defi-staking-app/src/contracts/DecentralBank.sol",
  "compiler": {
    "name": "solc",
    "version": "0.8.0+commit.c7dfd78e.Emscripten.clang"
  },
  "schemaVersion": "3.4.16",
  "updatedAt": "2024-05-17T14:49:10.406Z",
  "devdoc": {
    "kind": "dev",
    "methods": {},
    "version": 1
  },
  "userdoc": {
    "kind": "user",
    "methods": {},
    "version": 1
  }
}